{
  "_format": "hh-sol-artifact-1",
  "contractName": "EACAggregatorProxy",
  "sourceName": "contracts/oracle/EACAggregatorProxy.sol",
  "abi": [
    {
      "inputs": [
        {
          "internalType": "address",
          "name": "_aggregator",
          "type": "address"
        },
        {
          "internalType": "address",
          "name": "_accessController",
          "type": "address"
        }
      ],
      "stateMutability": "nonpayable",
      "type": "constructor"
    },
    {
      "anonymous": false,
      "inputs": [
        {
          "indexed": true,
          "internalType": "int256",
          "name": "current",
          "type": "int256"
        },
        {
          "indexed": true,
          "internalType": "uint256",
          "name": "roundId",
          "type": "uint256"
        },
        {
          "indexed": false,
          "internalType": "uint256",
          "name": "updatedAt",
          "type": "uint256"
        }
      ],
      "name": "AnswerUpdated",
      "type": "event"
    },
    {
      "anonymous": false,
      "inputs": [
        {
          "indexed": true,
          "internalType": "uint256",
          "name": "roundId",
          "type": "uint256"
        },
        {
          "indexed": true,
          "internalType": "address",
          "name": "startedBy",
          "type": "address"
        },
        {
          "indexed": false,
          "internalType": "uint256",
          "name": "startedAt",
          "type": "uint256"
        }
      ],
      "name": "NewRound",
      "type": "event"
    },
    {
      "anonymous": false,
      "inputs": [
        {
          "indexed": true,
          "internalType": "address",
          "name": "from",
          "type": "address"
        },
        {
          "indexed": true,
          "internalType": "address",
          "name": "to",
          "type": "address"
        }
      ],
      "name": "OwnershipTransferRequested",
      "type": "event"
    },
    {
      "anonymous": false,
      "inputs": [
        {
          "indexed": true,
          "internalType": "address",
          "name": "from",
          "type": "address"
        },
        {
          "indexed": true,
          "internalType": "address",
          "name": "to",
          "type": "address"
        }
      ],
      "name": "OwnershipTransferred",
      "type": "event"
    },
    {
      "inputs": [],
      "name": "acceptOwnership",
      "outputs": [],
      "stateMutability": "nonpayable",
      "type": "function"
    },
    {
      "inputs": [],
      "name": "accessController",
      "outputs": [
        {
          "internalType": "contract AccessControllerInterface",
          "name": "",
          "type": "address"
        }
      ],
      "stateMutability": "view",
      "type": "function"
    },
    {
      "inputs": [],
      "name": "aggregator",
      "outputs": [
        {
          "internalType": "address",
          "name": "",
          "type": "address"
        }
      ],
      "stateMutability": "view",
      "type": "function"
    },
    {
      "inputs": [
        {
          "internalType": "address",
          "name": "_aggregator",
          "type": "address"
        }
      ],
      "name": "confirmAggregator",
      "outputs": [],
      "stateMutability": "nonpayable",
      "type": "function"
    },
    {
      "inputs": [],
      "name": "decimals",
      "outputs": [
        {
          "internalType": "uint8",
          "name": "",
          "type": "uint8"
        }
      ],
      "stateMutability": "view",
      "type": "function"
    },
    {
      "inputs": [],
      "name": "description",
      "outputs": [
        {
          "internalType": "string",
          "name": "",
          "type": "string"
        }
      ],
      "stateMutability": "view",
      "type": "function"
    },
    {
      "inputs": [
        {
          "internalType": "uint256",
          "name": "_roundId",
          "type": "uint256"
        }
      ],
      "name": "getAnswer",
      "outputs": [
        {
          "internalType": "int256",
          "name": "",
          "type": "int256"
        }
      ],
      "stateMutability": "view",
      "type": "function"
    },
    {
      "inputs": [
        {
          "internalType": "uint80",
          "name": "_roundId",
          "type": "uint80"
        }
      ],
      "name": "getRoundData",
      "outputs": [
        {
          "internalType": "uint80",
          "name": "roundId",
          "type": "uint80"
        },
        {
          "internalType": "int256",
          "name": "answer",
          "type": "int256"
        },
        {
          "internalType": "uint256",
          "name": "startedAt",
          "type": "uint256"
        },
        {
          "internalType": "uint256",
          "name": "updatedAt",
          "type": "uint256"
        },
        {
          "internalType": "uint80",
          "name": "answeredInRound",
          "type": "uint80"
        }
      ],
      "stateMutability": "view",
      "type": "function"
    },
    {
      "inputs": [
        {
          "internalType": "uint256",
          "name": "_roundId",
          "type": "uint256"
        }
      ],
      "name": "getTimestamp",
      "outputs": [
        {
          "internalType": "uint256",
          "name": "",
          "type": "uint256"
        }
      ],
      "stateMutability": "view",
      "type": "function"
    },
    {
      "inputs": [],
      "name": "latestAnswer",
      "outputs": [
        {
          "internalType": "int256",
          "name": "",
          "type": "int256"
        }
      ],
      "stateMutability": "view",
      "type": "function"
    },
    {
      "inputs": [],
      "name": "latestRound",
      "outputs": [
        {
          "internalType": "uint256",
          "name": "",
          "type": "uint256"
        }
      ],
      "stateMutability": "view",
      "type": "function"
    },
    {
      "inputs": [],
      "name": "latestRoundData",
      "outputs": [
        {
          "internalType": "uint80",
          "name": "roundId",
          "type": "uint80"
        },
        {
          "internalType": "int256",
          "name": "answer",
          "type": "int256"
        },
        {
          "internalType": "uint256",
          "name": "startedAt",
          "type": "uint256"
        },
        {
          "internalType": "uint256",
          "name": "updatedAt",
          "type": "uint256"
        },
        {
          "internalType": "uint80",
          "name": "answeredInRound",
          "type": "uint80"
        }
      ],
      "stateMutability": "view",
      "type": "function"
    },
    {
      "inputs": [],
      "name": "latestTimestamp",
      "outputs": [
        {
          "internalType": "uint256",
          "name": "",
          "type": "uint256"
        }
      ],
      "stateMutability": "view",
      "type": "function"
    },
    {
      "inputs": [],
      "name": "owner",
      "outputs": [
        {
          "internalType": "address",
          "name": "",
          "type": "address"
        }
      ],
      "stateMutability": "view",
      "type": "function"
    },
    {
      "inputs": [
        {
          "internalType": "uint16",
          "name": "",
          "type": "uint16"
        }
      ],
      "name": "phaseAggregators",
      "outputs": [
        {
          "internalType": "contract AggregatorV2V3Interface",
          "name": "",
          "type": "address"
        }
      ],
      "stateMutability": "view",
      "type": "function"
    },
    {
      "inputs": [],
      "name": "phaseId",
      "outputs": [
        {
          "internalType": "uint16",
          "name": "",
          "type": "uint16"
        }
      ],
      "stateMutability": "view",
      "type": "function"
    },
    {
      "inputs": [
        {
          "internalType": "address",
          "name": "_aggregator",
          "type": "address"
        }
      ],
      "name": "proposeAggregator",
      "outputs": [],
      "stateMutability": "nonpayable",
      "type": "function"
    },
    {
      "inputs": [],
      "name": "proposedAggregator",
      "outputs": [
        {
          "internalType": "contract AggregatorV2V3Interface",
          "name": "",
          "type": "address"
        }
      ],
      "stateMutability": "view",
      "type": "function"
    },
    {
      "inputs": [
        {
          "internalType": "uint80",
          "name": "_roundId",
          "type": "uint80"
        }
      ],
      "name": "proposedGetRoundData",
      "outputs": [
        {
          "internalType": "uint80",
          "name": "roundId",
          "type": "uint80"
        },
        {
          "internalType": "int256",
          "name": "answer",
          "type": "int256"
        },
        {
          "internalType": "uint256",
          "name": "startedAt",
          "type": "uint256"
        },
        {
          "internalType": "uint256",
          "name": "updatedAt",
          "type": "uint256"
        },
        {
          "internalType": "uint80",
          "name": "answeredInRound",
          "type": "uint80"
        }
      ],
      "stateMutability": "view",
      "type": "function"
    },
    {
      "inputs": [],
      "name": "proposedLatestRoundData",
      "outputs": [
        {
          "internalType": "uint80",
          "name": "roundId",
          "type": "uint80"
        },
        {
          "internalType": "int256",
          "name": "answer",
          "type": "int256"
        },
        {
          "internalType": "uint256",
          "name": "startedAt",
          "type": "uint256"
        },
        {
          "internalType": "uint256",
          "name": "updatedAt",
          "type": "uint256"
        },
        {
          "internalType": "uint80",
          "name": "answeredInRound",
          "type": "uint80"
        }
      ],
      "stateMutability": "view",
      "type": "function"
    },
    {
      "inputs": [
        {
          "internalType": "address",
          "name": "_accessController",
          "type": "address"
        }
      ],
      "name": "setController",
      "outputs": [],
      "stateMutability": "nonpayable",
      "type": "function"
    },
    {
      "inputs": [
        {
          "internalType": "address",
          "name": "_to",
          "type": "address"
        }
      ],
      "name": "transferOwnership",
      "outputs": [],
      "stateMutability": "nonpayable",
      "type": "function"
    },
    {
      "inputs": [],
      "name": "version",
      "outputs": [
        {
          "internalType": "uint256",
          "name": "",
          "type": "uint256"
        }
      ],
      "stateMutability": "view",
      "type": "function"
    }
  ],
  "bytecode": "0x608060405234801561001057600080fd5b5060405162001cb338038062001cb38339818101604052604081101561003557600080fd5b508051602090910151600080546001600160a01b031916331790558161005a8161006b565b50610064816100da565b505061015b565b60028054604080518082018252600161ffff80851691909101168082526001600160a01b0395909516602091820181905261ffff19909316851762010000600160b01b0319166201000084021790935560009384526004909252912080546001600160a01b0319169091179055565b6000546001600160a01b03163314610139576040805162461bcd60e51b815260206004820152601660248201527f4f6e6c792063616c6c61626c65206279206f776e657200000000000000000000604482015290519081900360640190fd5b600580546001600160a01b0319166001600160a01b0392909216919091179055565b611b48806200016b6000396000f3fe608060405234801561001057600080fd5b506004361061011d5760003560e01c8063245a7bfc14610122578063313ce5671461014657806350d25bcd1461016457806354fd4d501461017e57806358303b10146101865780636001ac53146101a5578063668a0f021461020f5780637284e4161461021757806379ba5097146102945780638205bf6a1461029e5780638da5cb5b146102a65780638f6b4d91146102ae57806392eefe9b146102b65780639a6fc8f5146102dc578063a928c09614610302578063b5ab58dc14610328578063b633620c14610345578063bc43cbaf14610362578063c15973041461036a578063e8c4be301461038b578063f2fde38b14610393578063f8a2abd3146103b9578063feaf968c146103df575b600080fd5b61012a6103e7565b604080516001600160a01b039092168252519081900360200190f35b61014e6103fc565b6040805160ff9092168252519081900360200190f35b61016c610480565b60408051918252519081900360200190f35b61016c610588565b61018e6105db565b6040805161ffff9092168252519081900360200190f35b6101cb600480360360208110156101bb57600080fd5b50356001600160501b03166105e5565b60405180866001600160501b03168152602001858152602001848152602001838152602001826001600160501b031681526020019550505050505060405180910390f35b61016c61074e565b61021f610850565b6040805160208082528351818301528351919283929083019185019080838360005b83811015610259578181015183820152602001610241565b50505050905090810190601f1680156102865780820380516001836020036101000a031916815260200191505b509250505060405180910390f35b61029c610993565b005b61016c610a42565b61012a610b44565b6101cb610b53565b61029c600480360360208110156102cc57600080fd5b50356001600160a01b0316610cba565b6101cb600480360360208110156102f257600080fd5b50356001600160501b0316610d29565b61029c6004803603602081101561031857600080fd5b50356001600160a01b0316610e34565b61016c6004803603602081101561033e57600080fd5b5035610efd565b61016c6004803603602081101561035b57600080fd5b5035611007565b61012a61110a565b61012a6004803603602081101561038057600080fd5b503561ffff16611119565b61012a611134565b61029c600480360360208110156103a957600080fd5b50356001600160a01b0316611143565b61029c600480360360208110156103cf57600080fd5b50356001600160a01b03166111e1565b6101cb611250565b6002546201000090046001600160a01b031690565b6000600260000160029054906101000a90046001600160a01b03166001600160a01b031663313ce5676040518163ffffffff1660e01b815260040160206040518083038186803b15801561044f57600080fd5b505afa158015610463573d6000803e3d6000fd5b505050506040513d602081101561047957600080fd5b5051905090565b6005546000906001600160a01b031680158061053d575060408051630d629b5f60e31b815233600482018181526024830193845236604484018190526001600160a01b03861694636b14daf8946000939190606401848480828437600083820152604051601f909101601f1916909201965060209550909350505081840390508186803b15801561051057600080fd5b505afa158015610524573d6000803e3d6000fd5b505050506040513d602081101561053a57600080fd5b50515b61057a576040805162461bcd60e51b81526020600482015260096024820152684e6f2061636365737360b81b604482015290519081900360640190fd5b61058261135a565b91505090565b6000600260000160029054906101000a90046001600160a01b03166001600160a01b03166354fd4d506040518163ffffffff1660e01b815260040160206040518083038186803b15801561044f57600080fd5b60025461ffff1690565b60055460009081908190819081906001600160a01b03168015806106aa575060408051630d629b5f60e31b815233600482018181526024830193845236604484018190526001600160a01b03861694636b14daf8946000939190606401848480828437600083820152604051601f909101601f1916909201965060209550909350505081840390508186803b15801561067d57600080fd5b505afa158015610691573d6000803e3d6000fd5b505050506040513d60208110156106a757600080fd5b50515b6106e7576040805162461bcd60e51b81526020600482015260096024820152684e6f2061636365737360b81b604482015290519081900360640190fd5b6003546001600160a01b0316610732576040805162461bcd60e51b815260206004820152601e6024820152600080516020611ad3833981519152604482015290519081900360640190fd5b61073b876113ad565b939b929a50909850965090945092505050565b6005546000906001600160a01b031680158061080b575060408051630d629b5f60e31b815233600482018181526024830193845236604484018190526001600160a01b03861694636b14daf8946000939190606401848480828437600083820152604051601f909101601f1916909201965060209550909350505081840390508186803b1580156107de57600080fd5b505afa1580156107f2573d6000803e3d6000fd5b505050506040513d602081101561080857600080fd5b50515b610848576040805162461bcd60e51b81526020600482015260096024820152684e6f2061636365737360b81b604482015290519081900360640190fd5b6105826114aa565b6060600260000160029054906101000a90046001600160a01b03166001600160a01b0316637284e4166040518163ffffffff1660e01b815260040160006040518083038186803b1580156108a357600080fd5b505afa1580156108b7573d6000803e3d6000fd5b505050506040513d6000823e601f3d908101601f1916820160405260208110156108e057600080fd5b8101908080516040519392919084600160201b8211156108ff57600080fd5b90830190602082018581111561091457600080fd5b8251600160201b81118282018810171561092d57600080fd5b82525081516020918201929091019080838360005b8381101561095a578181015183820152602001610942565b50505050905090810190601f1680156109875780820380516001836020036101000a031916815260200191505b50604052505050905090565b6001546001600160a01b031633146109eb576040805162461bcd60e51b815260206004820152601660248201527526bab9ba10313290383937b837b9b2b21037bbb732b960511b604482015290519081900360640190fd5b60008054336001600160a01b0319808316821784556001805490911690556040516001600160a01b0390921692909183917f8be0079c531659141344cd1fd0a4f28419497f9722a3daafe3b4186f6b6457e091a350565b6005546000906001600160a01b0316801580610aff575060408051630d629b5f60e31b815233600482018181526024830193845236604484018190526001600160a01b03861694636b14daf8946000939190606401848480828437600083820152604051601f909101601f1916909201965060209550909350505081840390508186803b158015610ad257600080fd5b505afa158015610ae6573d6000803e3d6000fd5b505050506040513d6020811015610afc57600080fd5b50515b610b3c576040805162461bcd60e51b81526020600482015260096024820152684e6f2061636365737360b81b604482015290519081900360640190fd5b610582611558565b6000546001600160a01b031681565b60055460009081908190819081906001600160a01b0316801580610c18575060408051630d629b5f60e31b815233600482018181526024830193845236604484018190526001600160a01b03861694636b14daf8946000939190606401848480828437600083820152604051601f909101601f1916909201965060209550909350505081840390508186803b158015610beb57600080fd5b505afa158015610bff573d6000803e3d6000fd5b505050506040513d6020811015610c1557600080fd5b50515b610c55576040805162461bcd60e51b81526020600482015260096024820152684e6f2061636365737360b81b604482015290519081900360640190fd5b6003546001600160a01b0316610ca0576040805162461bcd60e51b815260206004820152601e6024820152600080516020611ad3833981519152604482015290519081900360640190fd5b610ca86115ab565b95509550955095509550509091929394565b6000546001600160a01b03163314610d07576040805162461bcd60e51b81526020600482015260166024820152600080516020611af3833981519152604482015290519081900360640190fd5b600580546001600160a01b0319166001600160a01b0392909216919091179055565b60055460009081908190819081906001600160a01b0316801580610dee575060408051630d629b5f60e31b815233600482018181526024830193845236604484018190526001600160a01b03861694636b14daf8946000939190606401848480828437600083820152604051601f909101601f1916909201965060209550909350505081840390508186803b158015610dc157600080fd5b505afa158015610dd5573d6000803e3d6000fd5b505050506040513d6020811015610deb57600080fd5b50515b610e2b576040805162461bcd60e51b81526020600482015260096024820152684e6f2061636365737360b81b604482015290519081900360640190fd5b61073b876116a1565b6000546001600160a01b03163314610e81576040805162461bcd60e51b81526020600482015260166024820152600080516020611af3833981519152604482015290519081900360640190fd5b6003546001600160a01b03828116911614610ee1576040805162461bcd60e51b815260206004820152601b60248201527a24b73b30b634b210383937b837b9b2b21030b3b3b932b3b0ba37b960291b604482015290519081900360640190fd5b600380546001600160a01b0319169055610efa8161179c565b50565b6005546000906001600160a01b0316801580610fba575060408051630d629b5f60e31b815233600482018181526024830193845236604484018190526001600160a01b03861694636b14daf8946000939190606401848480828437600083820152604051601f909101601f1916909201965060209550909350505081840390508186803b158015610f8d57600080fd5b505afa158015610fa1573d6000803e3d6000fd5b505050506040513d6020811015610fb757600080fd5b50515b610ff7576040805162461bcd60e51b81526020600482015260096024820152684e6f2061636365737360b81b604482015290519081900360640190fd5b6110008361180b565b9392505050565b6005546000906001600160a01b03168015806110c4575060408051630d629b5f60e31b815233600482018181526024830193845236604484018190526001600160a01b03861694636b14daf8946000939190606401848480828437600083820152604051601f909101601f1916909201965060209550909350505081840390508186803b15801561109757600080fd5b505afa1580156110ab573d6000803e3d6000fd5b505050506040513d60208110156110c157600080fd5b50515b611101576040805162461bcd60e51b81526020600482015260096024820152684e6f2061636365737360b81b604482015290519081900360640190fd5b611000836118e7565b6005546001600160a01b031681565b6004602052600090815260409020546001600160a01b031681565b6003546001600160a01b031681565b6000546001600160a01b03163314611190576040805162461bcd60e51b81526020600482015260166024820152600080516020611af3833981519152604482015290519081900360640190fd5b600180546001600160a01b0319166001600160a01b0383811691821790925560008054604051929316917fed8889f560326eb138920d842192f0eb3dd22b4f139c87a2c57538e05bae12789190a350565b6000546001600160a01b0316331461122e576040805162461bcd60e51b81526020600482015260166024820152600080516020611af3833981519152604482015290519081900360640190fd5b600380546001600160a01b0319166001600160a01b0392909216919091179055565b60055460009081908190819081906001600160a01b0316801580611315575060408051630d629b5f60e31b815233600482018181526024830193845236604484018190526001600160a01b03861694636b14daf8946000939190606401848480828437600083820152604051601f909101601f1916909201965060209550909350505081840390508186803b1580156112e857600080fd5b505afa1580156112fc573d6000803e3d6000fd5b505050506040513d602081101561131257600080fd5b50515b611352576040805162461bcd60e51b81526020600482015260096024820152684e6f2061636365737360b81b604482015290519081900360640190fd5b610ca861198c565b6000600260000160029054906101000a90046001600160a01b03166001600160a01b03166350d25bcd6040518163ffffffff1660e01b815260040160206040518083038186803b15801561044f57600080fd5b60035460009081908190819081906001600160a01b0316611403576040805162461bcd60e51b815260206004820152601e6024820152600080516020611ad3833981519152604482015290519081900360640190fd5b60035460408051639a6fc8f560e01b81526001600160501b038916600482015290516001600160a01b0390921691639a6fc8f59160248082019260a092909190829003018186803b15801561145757600080fd5b505afa15801561146b573d6000803e3d6000fd5b505050506040513d60a081101561148157600080fd5b508051602082015160408301516060840151608090940151929a91995097509195509350915050565b60006114b4611abb565b5060408051808201825260025461ffff8116808352620100009091046001600160a01b031660208084018290528451633345078160e11b8152945193946115499463668a0f0292600480840193919291829003018186803b15801561151857600080fd5b505afa15801561152c573d6000803e3d6000fd5b505050506040513d602081101561154257600080fd5b5051611a63565b6001600160501b031691505090565b6000600260000160029054906101000a90046001600160a01b03166001600160a01b0316638205bf6a6040518163ffffffff1660e01b815260040160206040518083038186803b15801561044f57600080fd5b60035460009081908190819081906001600160a01b0316611601576040805162461bcd60e51b815260206004820152601e6024820152600080516020611ad3833981519152604482015290519081900360640190fd5b600360009054906101000a90046001600160a01b03166001600160a01b031663feaf968c6040518163ffffffff1660e01b815260040160a06040518083038186803b15801561164f57600080fd5b505afa158015611663573d6000803e3d6000fd5b505050506040513d60a081101561167957600080fd5b5080516020820151604083015160608401516080909401519299919850965091945092509050565b60008060008060008060006116be886001600160501b0316611a7d565b61ffff8216600090815260046020819052604091829020548251639a6fc8f560e01b81526001600160401b0385169281019290925291519395509193506001600160a01b031691639a6fc8f59160248082019260a092909190829003018186803b15801561172b57600080fd5b505afa15801561173f573d6000803e3d6000fd5b505050506040513d60a081101561175557600080fd5b508051602082015160408301516060840151608090940151929a5090985096509094509250611788878787878787611a85565b939c929b5090995097509095509350505050565b60028054604080518082018252600161ffff80851691909101168082526001600160a01b0395909516602091820181905261ffff19909316851762010000600160b01b0319166201000084021790935560009384526004909252912080546001600160a01b0319169091179055565b60006001600160501b03821115611824575060006118e2565b60008061183084611a7d565b61ffff821660009081526004602052604090205491935091506001600160a01b03168061186357600093505050506118e2565b806001600160a01b031663b5ab58dc836040518263ffffffff1660e01b815260040180826001600160401b0316815260200191505060206040518083038186803b1580156118b057600080fd5b505afa1580156118c4573d6000803e3d6000fd5b505050506040513d60208110156118da57600080fd5b505193505050505b919050565b60006001600160501b03821115611900575060006118e2565b60008061190c84611a7d565b61ffff821660009081526004602052604090205491935091506001600160a01b03168061193f57600093505050506118e2565b806001600160a01b031663b633620c836040518263ffffffff1660e01b815260040180826001600160401b0316815260200191505060206040518083038186803b1580156118b057600080fd5b600080600080600061199c611abb565b5060408051808201825260025461ffff811682526201000090046001600160a01b0316602082018190528251633fabe5a360e21b815292519192909163feaf968c9160048082019260a092909190829003018186803b1580156119fe57600080fd5b505afa158015611a12573d6000803e3d6000fd5b505050506040513d60a0811015611a2857600080fd5b5080516020820151604083015160608401516080909401518551939a509198509650919450909250610ca89087908790879087908790611a85565b6001600160401b031660409190911b61ffff60401b161790565b604081901c91565b6000806000806000611a97868c611a63565b8a8a8a611aa48a8c611a63565b939f929e50909c509a509098509650505050505050565b60408051808201909152600080825260208201529056fe4e6f2070726f706f7365642061676772656761746f722070726573656e7400004f6e6c792063616c6c61626c65206279206f776e657200000000000000000000a2646970667358221220f009a58174fab6636b8ab73219df0071ff9308c5f7a20e52aef6c81113fbc3f964736f6c634300060c0033",
  "linkReferences": {},
  "deployedLinkReferences": {}
}